{
  "contractName": "Marketplace",
  "abi": [
    {
      "inputs": [],
      "stateMutability": "nonpayable",
      "type": "constructor"
    },
    {
      "anonymous": false,
      "inputs": [
        {
          "indexed": false,
          "internalType": "address",
          "name": "nftContract",
          "type": "address"
        },
        {
          "indexed": false,
          "internalType": "uint256",
          "name": "tokenId",
          "type": "uint256"
        },
        {
          "indexed": false,
          "internalType": "address",
          "name": "seller",
          "type": "address"
        },
        {
          "indexed": false,
          "internalType": "address",
          "name": "owner",
          "type": "address"
        },
        {
          "indexed": false,
          "internalType": "uint256",
          "name": "price",
          "type": "uint256"
        }
      ],
      "name": "NFTListed",
      "type": "event"
    },
    {
      "anonymous": false,
      "inputs": [
        {
          "indexed": false,
          "internalType": "address",
          "name": "nftContract",
          "type": "address"
        },
        {
          "indexed": false,
          "internalType": "uint256",
          "name": "tokenId",
          "type": "uint256"
        },
        {
          "indexed": false,
          "internalType": "address",
          "name": "seller",
          "type": "address"
        },
        {
          "indexed": false,
          "internalType": "address",
          "name": "owner",
          "type": "address"
        },
        {
          "indexed": false,
          "internalType": "uint256",
          "name": "price",
          "type": "uint256"
        }
      ],
      "name": "NFTSold",
      "type": "event"
    },
    {
      "inputs": [],
      "name": "LISTING_FEE",
      "outputs": [
        {
          "internalType": "uint256",
          "name": "",
          "type": "uint256"
        }
      ],
      "stateMutability": "view",
      "type": "function",
      "constant": true
    },
    {
      "inputs": [
        {
          "internalType": "address",
          "name": "_nftContract",
          "type": "address"
        },
        {
          "internalType": "uint256",
          "name": "_tokenId",
          "type": "uint256"
        },
        {
          "internalType": "uint256",
          "name": "_price",
          "type": "uint256"
        }
      ],
      "name": "listNft",
      "outputs": [],
      "stateMutability": "payable",
      "type": "function",
      "payable": true
    },
    {
      "inputs": [
        {
          "internalType": "address",
          "name": "_nftContract",
          "type": "address"
        },
        {
          "internalType": "uint256",
          "name": "_tokenId",
          "type": "uint256"
        },
        {
          "internalType": "uint256",
          "name": "_price",
          "type": "uint256"
        }
      ],
      "name": "resellNft",
      "outputs": [],
      "stateMutability": "payable",
      "type": "function",
      "payable": true
    },
    {
      "inputs": [
        {
          "internalType": "address",
          "name": "_nftContract",
          "type": "address"
        },
        {
          "internalType": "uint256",
          "name": "_tokenId",
          "type": "uint256"
        }
      ],
      "name": "buyNft",
      "outputs": [],
      "stateMutability": "payable",
      "type": "function",
      "payable": true
    },
    {
      "inputs": [],
      "name": "getListingFee",
      "outputs": [
        {
          "internalType": "uint256",
          "name": "",
          "type": "uint256"
        }
      ],
      "stateMutability": "view",
      "type": "function",
      "constant": true
    },
    {
      "inputs": [],
      "name": "getListedNfts",
      "outputs": [
        {
          "components": [
            {
              "internalType": "address",
              "name": "nftContract",
              "type": "address"
            },
            {
              "internalType": "uint256",
              "name": "tokenId",
              "type": "uint256"
            },
            {
              "internalType": "address payable",
              "name": "seller",
              "type": "address"
            },
            {
              "internalType": "address payable",
              "name": "owner",
              "type": "address"
            },
            {
              "internalType": "uint256",
              "name": "price",
              "type": "uint256"
            },
            {
              "internalType": "bool",
              "name": "listed",
              "type": "bool"
            }
          ],
          "internalType": "struct Marketplace.NFT[]",
          "name": "",
          "type": "tuple[]"
        }
      ],
      "stateMutability": "view",
      "type": "function",
      "constant": true
    },
    {
      "inputs": [],
      "name": "getMyNfts",
      "outputs": [
        {
          "components": [
            {
              "internalType": "address",
              "name": "nftContract",
              "type": "address"
            },
            {
              "internalType": "uint256",
              "name": "tokenId",
              "type": "uint256"
            },
            {
              "internalType": "address payable",
              "name": "seller",
              "type": "address"
            },
            {
              "internalType": "address payable",
              "name": "owner",
              "type": "address"
            },
            {
              "internalType": "uint256",
              "name": "price",
              "type": "uint256"
            },
            {
              "internalType": "bool",
              "name": "listed",
              "type": "bool"
            }
          ],
          "internalType": "struct Marketplace.NFT[]",
          "name": "",
          "type": "tuple[]"
        }
      ],
      "stateMutability": "view",
      "type": "function",
      "constant": true
    },
    {
      "inputs": [],
      "name": "getMyListedNfts",
      "outputs": [
        {
          "components": [
            {
              "internalType": "address",
              "name": "nftContract",
              "type": "address"
            },
            {
              "internalType": "uint256",
              "name": "tokenId",
              "type": "uint256"
            },
            {
              "internalType": "address payable",
              "name": "seller",
              "type": "address"
            },
            {
              "internalType": "address payable",
              "name": "owner",
              "type": "address"
            },
            {
              "internalType": "uint256",
              "name": "price",
              "type": "uint256"
            },
            {
              "internalType": "bool",
              "name": "listed",
              "type": "bool"
            }
          ],
          "internalType": "struct Marketplace.NFT[]",
          "name": "",
          "type": "tuple[]"
        }
      ],
      "stateMutability": "view",
      "type": "function",
      "constant": true
    }
  ],
  "bytecode": "0x6080604052655af3107a400060035534801561001a57600080fd5b50600160008190555033600460006101000a81548173ffffffffffffffffffffffffffffffffffffffff021916908373ffffffffffffffffffffffffffffffffffffffff160217905550611c01806100736000396000f3fe60806040526004361061007b5760003560e01c80634ddf4f8f1161004e5780634ddf4f8f1461011d5780638d6cb3fb14610139578063b8fe6abe14610164578063c922b17c1461018f5761007b565b8063047b07bf146100805780631f4cc4db146100ab5780632b86ae38146100d657806334f5b62414610101575b600080fd5b34801561008c57600080fd5b506100956101ab565b6040516100a2919061155b565b60405180910390f35b3480156100b757600080fd5b506100c06104de565b6040516100cd919061155b565b60405180910390f35b3480156100e257600080fd5b506100eb610883565b6040516100f8919061158c565b60405180910390f35b61011b60048036038101906101169190611604565b610889565b005b61013760048036038101906101329190611657565b610a5e565b005b34801561014557600080fd5b5061014e610cf1565b60405161015b919061155b565b60405180910390f35b34801561017057600080fd5b50610179610f59565b604051610186919061158c565b60405180910390f35b6101a960048036038101906101a49190611604565b610f63565b005b606060006101b96002611248565b90506000805b8281101561025e573373ffffffffffffffffffffffffffffffffffffffff16600560006001846101ef91906116c6565b815260200190815260200160002060030160009054906101000a900473ffffffffffffffffffffffffffffffffffffffff1673ffffffffffffffffffffffffffffffffffffffff160361024b5781806102479061171c565b9250505b80806102569061171c565b9150506101bf565b5060008167ffffffffffffffff81111561027b5761027a611764565b5b6040519080825280602002602001820160405280156102b457816020015b6102a1611321565b8152602001906001900390816102995790505b5090506000805b848110156104d3573373ffffffffffffffffffffffffffffffffffffffff16600560006001846102eb91906116c6565b815260200190815260200160002060030160009054906101000a900473ffffffffffffffffffffffffffffffffffffffff1673ffffffffffffffffffffffffffffffffffffffff16036104c0576005600060018361034991906116c6565b81526020019081526020016000206040518060c00160405290816000820160009054906101000a900473ffffffffffffffffffffffffffffffffffffffff1673ffffffffffffffffffffffffffffffffffffffff1673ffffffffffffffffffffffffffffffffffffffff168152602001600182015481526020016002820160009054906101000a900473ffffffffffffffffffffffffffffffffffffffff1673ffffffffffffffffffffffffffffffffffffffff1673ffffffffffffffffffffffffffffffffffffffff1681526020016003820160009054906101000a900473ffffffffffffffffffffffffffffffffffffffff1673ffffffffffffffffffffffffffffffffffffffff1673ffffffffffffffffffffffffffffffffffffffff168152602001600482015481526020016005820160009054906101000a900460ff1615151515815250508383815181106104a6576104a5611793565b5b602002602001018190525081806104bc9061171c565b9250505b80806104cb9061171c565b9150506102bb565b508194505050505090565b606060006104ec6002611248565b90506000805b828110156105ca573373ffffffffffffffffffffffffffffffffffffffff166005600060018461052291906116c6565b815260200190815260200160002060020160009054906101000a900473ffffffffffffffffffffffffffffffffffffffff1673ffffffffffffffffffffffffffffffffffffffff161480156105a357506005600060018361058391906116c6565b815260200190815260200160002060050160009054906101000a900460ff165b156105b75781806105b39061171c565b9250505b80806105c29061171c565b9150506104f2565b5060008167ffffffffffffffff8111156105e7576105e6611764565b5b60405190808252806020026020018201604052801561062057816020015b61060d611321565b8152602001906001900390816106055790505b5090506000805b84811015610878573373ffffffffffffffffffffffffffffffffffffffff166005600060018461065791906116c6565b815260200190815260200160002060020160009054906101000a900473ffffffffffffffffffffffffffffffffffffffff1673ffffffffffffffffffffffffffffffffffffffff161480156106d85750600560006001836106b891906116c6565b815260200190815260200160002060050160009054906101000a900460ff165b1561086557600560006001836106ee91906116c6565b81526020019081526020016000206040518060c00160405290816000820160009054906101000a900473ffffffffffffffffffffffffffffffffffffffff1673ffffffffffffffffffffffffffffffffffffffff1673ffffffffffffffffffffffffffffffffffffffff168152602001600182015481526020016002820160009054906101000a900473ffffffffffffffffffffffffffffffffffffffff1673ffffffffffffffffffffffffffffffffffffffff1673ffffffffffffffffffffffffffffffffffffffff1681526020016003820160009054906101000a900473ffffffffffffffffffffffffffffffffffffffff1673ffffffffffffffffffffffffffffffffffffffff1673ffffffffffffffffffffffffffffffffffffffff168152602001600482015481526020016005820160009054906101000a900460ff16151515158152505083838151811061084b5761084a611793565b5b602002602001018190525081806108619061171c565b9250505b80806108709061171c565b915050610627565b508194505050505090565b60035481565b610891611256565b60035434146108d5576040517f08c379a00000000000000000000000000000000000000000000000000000000081526004016108cc9061181f565b60405180910390fd5b8273ffffffffffffffffffffffffffffffffffffffff166323b872dd3330856040518463ffffffff1660e01b81526004016109129392919061184e565b600060405180830381600087803b15801561092c57600080fd5b505af1158015610940573d6000803e3d6000fd5b505050506000600560008481526020019081526020016000209050338160020160006101000a81548173ffffffffffffffffffffffffffffffffffffffff021916908373ffffffffffffffffffffffffffffffffffffffff160217905550308160030160006101000a81548173ffffffffffffffffffffffffffffffffffffffff021916908373ffffffffffffffffffffffffffffffffffffffff16021790555060008160050160006101000a81548160ff021916908315150217905550818160040181905550610a1160016112a5565b7fa0c6c0d02d86fdacecbaa5fdf5894bab204e31a778250474108540733a9b8d198484333086604051610a48959493929190611885565b60405180910390a150610a59611301565b505050565b610a66611256565b60006005600083815260200190815260200160002090508060040154341015610ac4576040517f08c379a0000000000000000000000000000000000000000000000000000000008152600401610abb9061194a565b60405180910390fd5b60003390508160020160009054906101000a900473ffffffffffffffffffffffffffffffffffffffff1673ffffffffffffffffffffffffffffffffffffffff166108fc349081150290604051600060405180830381858888f19350505050158015610b33573d6000803e3d6000fd5b508373ffffffffffffffffffffffffffffffffffffffff166323b872dd308385600101546040518463ffffffff1660e01b8152600401610b75939291906119c9565b600060405180830381600087803b158015610b8f57600080fd5b505af1158015610ba3573d6000803e3d6000fd5b50505050600460009054906101000a900473ffffffffffffffffffffffffffffffffffffffff1673ffffffffffffffffffffffffffffffffffffffff166108fc6003549081150290604051600060405180830381858888f19350505050158015610c11573d6000803e3d6000fd5b50808260030160006101000a81548173ffffffffffffffffffffffffffffffffffffffff021916908373ffffffffffffffffffffffffffffffffffffffff16021790555060008260050160006101000a81548160ff021916908315150217905550610c7c600161130b565b7f16f1dbd97e6bf646d429ed186cce832f1f7fd9907814293b83181e9970ab7bd28483600101548460020160009054906101000a900473ffffffffffffffffffffffffffffffffffffffff168434604051610cdb959493929190611a00565b60405180910390a15050610ced611301565b5050565b60606000610cff6002611248565b90506000610d0d6001611248565b82610d189190611a53565b905060008167ffffffffffffffff811115610d3657610d35611764565b5b604051908082528060200260200182016040528015610d6f57816020015b610d5c611321565b815260200190600190039081610d545790505b5090506000805b84811015610f4e5760056000600183610d8f91906116c6565b815260200190815260200160002060050160009054906101000a900460ff1615610f3b5760056000600183610dc491906116c6565b81526020019081526020016000206040518060c00160405290816000820160009054906101000a900473ffffffffffffffffffffffffffffffffffffffff1673ffffffffffffffffffffffffffffffffffffffff1673ffffffffffffffffffffffffffffffffffffffff168152602001600182015481526020016002820160009054906101000a900473ffffffffffffffffffffffffffffffffffffffff1673ffffffffffffffffffffffffffffffffffffffff1673ffffffffffffffffffffffffffffffffffffffff1681526020016003820160009054906101000a900473ffffffffffffffffffffffffffffffffffffffff1673ffffffffffffffffffffffffffffffffffffffff1673ffffffffffffffffffffffffffffffffffffffff168152602001600482015481526020016005820160009054906101000a900460ff161515151581525050838381518110610f2157610f20611793565b5b60200260200101819052508180610f379061171c565b9250505b8080610f469061171c565b915050610d76565b508194505050505090565b6000600354905090565b610f6b611256565b60008111610fae576040517f08c379a0000000000000000000000000000000000000000000000000000000008152600401610fa590611ad3565b60405180910390fd5b6003543414610ff2576040517f08c379a0000000000000000000000000000000000000000000000000000000008152600401610fe99061181f565b60405180910390fd5b8273ffffffffffffffffffffffffffffffffffffffff166323b872dd3330856040518463ffffffff1660e01b815260040161102f9392919061184e565b600060405180830381600087803b15801561104957600080fd5b505af115801561105d573d6000803e3d6000fd5b5050505061106b600261130b565b6040518060c001604052808473ffffffffffffffffffffffffffffffffffffffff1681526020018381526020013373ffffffffffffffffffffffffffffffffffffffff1681526020013073ffffffffffffffffffffffffffffffffffffffff168152602001828152602001600115158152506005600084815260200190815260200160002060008201518160000160006101000a81548173ffffffffffffffffffffffffffffffffffffffff021916908373ffffffffffffffffffffffffffffffffffffffff1602179055506020820151816001015560408201518160020160006101000a81548173ffffffffffffffffffffffffffffffffffffffff021916908373ffffffffffffffffffffffffffffffffffffffff16021790555060608201518160030160006101000a81548173ffffffffffffffffffffffffffffffffffffffff021916908373ffffffffffffffffffffffffffffffffffffffff1602179055506080820151816004015560a08201518160050160006101000a81548160ff0219169083151502179055509050507fa0c6c0d02d86fdacecbaa5fdf5894bab204e31a778250474108540733a9b8d198383333085604051611233959493929190611885565b60405180910390a1611243611301565b505050565b600081600001549050919050565b60026000540361129b576040517f08c379a000000000000000000000000000000000000000000000000000000000815260040161129290611b3f565b60405180910390fd5b6002600081905550565b600081600001549050600081116112f1576040517f08c379a00000000000000000000000000000000000000000000000000000000081526004016112e890611bab565b60405180910390fd5b6001810382600001819055505050565b6001600081905550565b6001816000016000828254019250508190555050565b6040518060c00160405280600073ffffffffffffffffffffffffffffffffffffffff16815260200160008152602001600073ffffffffffffffffffffffffffffffffffffffff168152602001600073ffffffffffffffffffffffffffffffffffffffff168152602001600081526020016000151581525090565b600081519050919050565b600082825260208201905092915050565b6000819050602082019050919050565b600073ffffffffffffffffffffffffffffffffffffffff82169050919050565b60006113f2826113c7565b9050919050565b611402816113e7565b82525050565b6000819050919050565b61141b81611408565b82525050565b600061142c826113c7565b9050919050565b61143c81611421565b82525050565b60008115159050919050565b61145781611442565b82525050565b60c08201600082015161147360008501826113f9565b5060208201516114866020850182611412565b5060408201516114996040850182611433565b5060608201516114ac6060850182611433565b5060808201516114bf6080850182611412565b5060a08201516114d260a085018261144e565b50505050565b60006114e4838361145d565b60c08301905092915050565b6000602082019050919050565b60006115088261139b565b61151281856113a6565b935061151d836113b7565b8060005b8381101561154e57815161153588826114d8565b9750611540836114f0565b925050600181019050611521565b5085935050505092915050565b6000602082019050818103600083015261157581846114fd565b905092915050565b61158681611408565b82525050565b60006020820190506115a1600083018461157d565b92915050565b600080fd5b6115b5816113e7565b81146115c057600080fd5b50565b6000813590506115d2816115ac565b92915050565b6115e181611408565b81146115ec57600080fd5b50565b6000813590506115fe816115d8565b92915050565b60008060006060848603121561161d5761161c6115a7565b5b600061162b868287016115c3565b935050602061163c868287016115ef565b925050604061164d868287016115ef565b9150509250925092565b6000806040838503121561166e5761166d6115a7565b5b600061167c858286016115c3565b925050602061168d858286016115ef565b9150509250929050565b7f4e487b7100000000000000000000000000000000000000000000000000000000600052601160045260246000fd5b60006116d182611408565b91506116dc83611408565b9250827fffffffffffffffffffffffffffffffffffffffffffffffffffffffffffffffff0382111561171157611710611697565b5b828201905092915050565b600061172782611408565b91507fffffffffffffffffffffffffffffffffffffffffffffffffffffffffffffffff820361175957611758611697565b5b600182019050919050565b7f4e487b7100000000000000000000000000000000000000000000000000000000600052604160045260246000fd5b7f4e487b7100000000000000000000000000000000000000000000000000000000600052603260045260246000fd5b600082825260208201905092915050565b7f4e6f7420656e6f75676820657468657220666f72206c697374696e6720666565600082015250565b60006118096020836117c2565b9150611814826117d3565b602082019050919050565b60006020820190508181036000830152611838816117fc565b9050919050565b611848816113e7565b82525050565b6000606082019050611863600083018661183f565b611870602083018561183f565b61187d604083018461157d565b949350505050565b600060a08201905061189a600083018861183f565b6118a7602083018761157d565b6118b4604083018661183f565b6118c1606083018561183f565b6118ce608083018461157d565b9695505050505050565b7f4e6f7420656e6f75676820657468657220746f20636f7665722061736b696e6760008201527f2070726963650000000000000000000000000000000000000000000000000000602082015250565b60006119346026836117c2565b915061193f826118d8565b604082019050919050565b6000602082019050818103600083015261196381611927565b9050919050565b6000819050919050565b600061198f61198a611985846113c7565b61196a565b6113c7565b9050919050565b60006119a182611974565b9050919050565b60006119b382611996565b9050919050565b6119c3816119a8565b82525050565b60006060820190506119de600083018661183f565b6119eb60208301856119ba565b6119f8604083018461157d565b949350505050565b600060a082019050611a15600083018861183f565b611a22602083018761157d565b611a2f60408301866119ba565b611a3c60608301856119ba565b611a49608083018461157d565b9695505050505050565b6000611a5e82611408565b9150611a6983611408565b925082821015611a7c57611a7b611697565b5b828203905092915050565b7f5072696365206d757374206265206174206c6561737420312077656900000000600082015250565b6000611abd601c836117c2565b9150611ac882611a87565b602082019050919050565b60006020820190508181036000830152611aec81611ab0565b9050919050565b7f5265656e7472616e637947756172643a207265656e7472616e742063616c6c00600082015250565b6000611b29601f836117c2565b9150611b3482611af3565b602082019050919050565b60006020820190508181036000830152611b5881611b1c565b9050919050565b7f436f756e7465723a2064656372656d656e74206f766572666c6f770000000000600082015250565b6000611b95601b836117c2565b9150611ba082611b5f565b602082019050919050565b60006020820190508181036000830152611bc481611b88565b905091905056fea26469706673582212203ce399b10fd1518c7f6dd47a4ee2ea6010a08d9c23f561881d654b78dfcd96f764736f6c634300080d0033",
  "immutableReferences": {},
  "source": "// SPDX-License-Identifier: MIT\npragma solidity ^0.8.13;\n\nimport \"@openzeppelin/contracts/utils/Counters.sol\";\nimport \"@openzeppelin/contracts/token/ERC721/ERC721.sol\";\nimport \"@openzeppelin/contracts/security/ReentrancyGuard.sol\";\n\ncontract Marketplace is ReentrancyGuard {\n    using Counters for Counters.Counter;\n    Counters.Counter private _nftsSold;\n    Counters.Counter private _nftCount;\n    uint256 public LISTING_FEE = 0.0001 ether;\n    address payable private _marketOwner;\n    mapping(uint256 => NFT) private _idToNFT;\n    struct NFT {\n        address nftContract;\n        uint256 tokenId;\n        address payable seller;\n        address payable owner;\n        uint256 price;\n        bool listed;\n    }\n    event NFTListed(\n        address nftContract,\n        uint256 tokenId,\n        address seller,\n        address owner,\n        uint256 price\n    );\n    event NFTSold(\n        address nftContract,\n        uint256 tokenId,\n        address seller,\n        address owner,\n        uint256 price\n    );\n\n    constructor() {\n        _marketOwner = payable(msg.sender);\n    }\n\n    // List the NFT on the marketplace\n    function listNft(address _nftContract, uint256 _tokenId, uint256 _price) public payable nonReentrant {\n        require(_price > 0, \"Price must be at least 1 wei\");\n        require(msg.value == LISTING_FEE, \"Not enough ether for listing fee\");\n\n        IERC721(_nftContract).transferFrom(msg.sender, address(this), _tokenId);\n\n        _nftCount.increment();\n\n        _idToNFT[_tokenId] = NFT(\n            _nftContract,\n            _tokenId,\n            payable(msg.sender),\n            payable(address(this)),\n            _price,\n            true\n        );\n\n        emit NFTListed(_nftContract, _tokenId, msg.sender, address(this), _price);\n    }\n\n    // Resell an NFT purchased from the marketplace\n    function resellNft(address _nftContract, uint256 _tokenId, uint256 _price) public payable nonReentrant {\n        require(msg.value == LISTING_FEE, \"Not enough ether for listing fee\");\n\n        IERC721(_nftContract).transferFrom(msg.sender, address(this), _tokenId);\n\n        NFT storage nft = _idToNFT[_tokenId];\n        nft.seller = payable(msg.sender);\n        nft.owner = payable(address(this));\n        nft.listed = false;\n        nft.price = _price;\n\n        _nftsSold.decrement();\n        emit NFTListed(_nftContract, _tokenId, msg.sender, address(this), _price);\n    }\n\n    // Buy an NFT\n    function buyNft(address _nftContract, uint256 _tokenId) public payable nonReentrant {\n        NFT storage nft = _idToNFT[_tokenId];\n        require(msg.value >= nft.price, \"Not enough ether to cover asking price\");\n\n        address payable buyer = payable(msg.sender);\n        payable(nft.seller).transfer(msg.value);\n        IERC721(_nftContract).transferFrom(address(this), buyer, nft.tokenId);\n        _marketOwner.transfer(LISTING_FEE);\n        nft.owner = buyer;\n        nft.listed = false;\n\n        _nftsSold.increment();\n        emit NFTSold(_nftContract, nft.tokenId, nft.seller, buyer, msg.value);\n    }\n\n    function getListingFee() public view returns (uint256) {\n        return LISTING_FEE;\n    }\n\n    function getListedNfts() public view returns (NFT[] memory) {\n        uint256 nftCount = _nftCount.current();\n        uint256 unsoldNftsCount = nftCount - _nftsSold.current();\n\n        NFT[] memory nfts = new NFT[](unsoldNftsCount);\n        uint nftsIndex = 0;\n        for (uint i = 0; i < nftCount; i++) {\n            if (_idToNFT[i + 1].listed) {\n                nfts[nftsIndex] = _idToNFT[i + 1];\n                nftsIndex++;\n            }\n        }\n        return nfts;\n    }\n\n    function getMyNfts() public view returns (NFT[] memory) {\n        uint nftCount = _nftCount.current();\n        uint myNftCount = 0;\n        for (uint i = 0; i < nftCount; i++) {\n            if (_idToNFT[i + 1].owner == msg.sender) {\n                myNftCount++;\n            }\n        }\n\n        NFT[] memory nfts = new NFT[](myNftCount);\n        uint nftsIndex = 0;\n        for (uint i = 0; i < nftCount; i++) {\n            if (_idToNFT[i + 1].owner == msg.sender) {\n                nfts[nftsIndex] = _idToNFT[i + 1];\n                nftsIndex++;\n            }\n        }\n        return nfts;\n    }\n\n    function getMyListedNfts() public view returns (NFT[] memory) {\n        uint nftCount = _nftCount.current();\n        uint myListedNftCount = 0;\n        for (uint i = 0; i < nftCount; i++) {\n            if (_idToNFT[i + 1].seller == msg.sender && _idToNFT[i + 1].listed) {\n                myListedNftCount++;\n            }\n        }\n\n        NFT[] memory nfts = new NFT[](myListedNftCount);\n        uint nftsIndex = 0;\n        for (uint i = 0; i < nftCount; i++) {\n            if (_idToNFT[i + 1].seller == msg.sender && _idToNFT[i + 1].listed) {\n                nfts[nftsIndex] = _idToNFT[i + 1];\n                nftsIndex++;\n            }\n        }\n        return nfts;\n    }\n}",
  "sourcePath": "/home/leo/As2/nft-marketplace/contracts/optimism/Marketplace.sol",
  "compiler": {
    "name": "solc",
    "version": "0.8.13+commit.abaa5c0e.Emscripten.clang"
  },
  "schemaVersion": "3.4.16",
  "updatedAt": "2023-10-04T03:17:34.221Z",
  "networkType": "ethereum",
  "devdoc": {
    "kind": "dev",
    "methods": {},
    "version": 1
  },
  "userdoc": {
    "kind": "user",
    "methods": {},
    "version": 1
  }
}